:020000040800F2
:1000000040080020A5010008F32E0008312E00084A
:10001000F12E0008691A0008BD3300080000000036
:10002000000000000000000000000000AD300008EB
:100030006B1A000800000000F52E0008AF30000821
:10004000BF010008BF010008BF010008BF01000890
:10005000BF010008BF010008BF010008BF01000880
:10006000BF010008BF010008BF010008BF01000870
:10007000BF010008BF010008BF010008BF01000860
:10008000BF010008BF010008BF010008BF01000850
:10009000BF010008BF010008BF010008BF01000840
:1000A000BF010008BF010008BF010008BF01000830
:1000B000BF010008BF010008BF010008BF01000820
:1000C000BF010008BF010008BF010008BF01000810
:1000D000BF010008A5330008B1330008BF010008C4
:1000E000BF010008BF010008BF01000800F002F8CE
:1000F00000F048F80AA090E8000C82448344AAF17A
:100100000107DA4501D100F03DF8AFF2090EBAE877
:100110000F0013F0010F18BFFB1A43F0010318473B
:10012000F83C0000183D0000103A24BF78C878C1A0
:10013000FAD8520724BF30C830C144BF04680C60ED
:10014000704700000023002400250026103A28BF35
:1001500078C1FBD8520728BF30C148BF0B60704739
:100160001FB500F039F904000020002103F0ACFABB
:10017000401C60600020002103F090FAE0601FBD89
:1001800010B510BD00F0EEF91146FFF7E9FF03F0DE
:1001900029FA00F091FC03B4FFF7F2FF03BC00F072
:1001A000FFFE00000948804709480047FEE7FEE7D8
:1001B000FEE7FEE7FEE7FEE7FEE7FEE7FEE7FEE717
:1001C00004480549054A064B704700002B310008DA
:1001D000ED000008400200204008002040040020FC
:1001E00040040020014A00F0D5B800005C00002067
:1001F00040EA010370B59B072ED14FF00136042A67
:100200002AD308C810C99D1B9D43121F15EAC615A5
:1002100017D0D8B2E1B2401A50EA056110D198B2B5
:10022000A1B2401A50EA05410AD123F07F4024F0E0
:100230007F41401A50EA052102D1180EA0EB14604C
:1002400070BDA342DBD018BA21BA884201D901207F
:1002500070BD4FF0FF3070BD0AB9002070BD10F8BE
:10026000013B11F8014B63B1A3420AD1521E08D0E1
:1002700010F8013B11F8014B1BB1A34201D1521EF2
:10028000EDD1181B70BD4FF0000200B51346944627
:100290009646203922BFA0E80C50A0E80C50B1F1DE
:1002A0002001BFF4F7AF090728BFA0E80C5048BFF2
:1002B0000CC05DF804EB890028BF40F8042B08BF90
:1002C000704748BF20F8022B11F0804F18BF00F88C
:1002D000012B704770477047704710B500F080F8E9
:1002E000006810BD10B5044600F07AF8046010BD37
:1002F0000FB4002300B589B00CA900910B99CB6015
:10030000214B7B440693214B7B44079304236FF0DE
:100310000042CDE901321E4A7A446B4608920246F9
:10032000002003F0F2FC09B05DF814FB70B506463E
:100330004FF0FF3015460C46324686B00091CDE9AD
:10034000010169460020049004A8FFF7D1FF02468E
:100350000498211825B108B1084600E0204628601D
:10036000049800280DD0002A02DD0098884208D0A9
:100370003246081B69460094CDE9010404A8FFF742
:10038000B7FF06B070BD0000F50000000D010000D1
:10039000CD0000002DE9F04115460E46040002D1C3
:1003A0002C6804B90BA4204600F0CAF80444207855
:1003B00070B127463146384600F0B2F80444207840
:1003C00010B1002004F8010B38462C60BDE8F08124
:1003D0000027F9E70000000000487047FC010020FA
:1003E00000487047DC01002010B5044600F0E0F83A
:1003F0000068005D00F0010010BD426842B1016874
:1004000011F8013B23B1521EC0E900121846704793
:100410000121C160881E704742685AB1C3680168F3
:1004200043B983688B4205D0491E521CC0E90012B3
:10043000002070474FF0FF30704700002DE9F04773
:10044000814616468AB0354878440DC88DE80D00BF
:1004500032487844801C03AC0DC884E80D0041F696
:100460009B300844372190FBF1F290FBF1F5A5F1A8
:10047000800501FB12041B3C02D56442012000E010
:100480000020DFF898A080460027FA44AAF1BE0AAF
:100490000EE0E0070AD03246684607EB4701012329
:1004A0000AEB810101F01AF88DE8070064107F1C47
:1004B000002CEED1194F7F44AE3F19E0E80715D06C
:1004C00007EB04100DF1180A90E80E008AE80E0000
:1004D000C068F04201D1981908903246012306A95C
:1004E00003A800F0FBFF03AB83E807006D10641C5A
:1004F000002DE3D14FF0010332466946B8F1000FF9
:1005000003A802D000F0C0FF01E000F0E7FFC9E956
:100510000001C9F808200AB0BDE8F087B43900002E
:1005200030B503461D781DB10A4603E0AC4201D147
:10053000181A30BD12F8014B002CF7D15B1CF1E703
:1005400030B503461D783DB10A4612F8014B1CB187
:10055000AC42FAD15B1CF5E7181A30BD0048704771
:10056000DC0100207546FFF7F9FFAE46050069463D
:10057000534620F00700854618B020B5FFF720FE4F
:10058000BDE820404FF000064FF000074FF0000894
:100590004FF0000B21F00701AC46ACE8C009ACE815
:1005A000C009ACE8C009ACE8C0098D46704700003E
:1005B00010B5FFF711FF001D10BD00BF0D31000089
:1005C0002DE9FF4F06468BB00878FF2806D0491C5E
:1005D0002D2805D000244FF0000908E000200CE091
:1005E0000124F8E709EB8903491C00EB430908786B
:1005F000FF28F7D114B1C9F1000081461078002519
:100600002C46AA4629462D2801D02B2804D1521C5D
:100610002D2813D0002082468B461078FF280FD05B
:100620004FF0000C0A21521CA5FB017804FB01814C
:1006300005FB0C11C5194BEB0104EEE70120EAE7BD
:10064000002108464FF00000BAF1000F02D000EB85
:1006500080004008C0F38157012F01DD4FF0FF37C4
:100660000E9955EA040009EB01080BD04FF002097E
:1006700018F5FA7F16DA4FEACA70002F706008DDAD
:10068000012007E04FEACA70C6E900B00FB0BDE82C
:10069000F08F00203060FFF7A3FEC0F80090182113
:1006A000084616E0B8F5FA7F18DD002F02DAF748A1
:1006B000784401E0F6487844D0E90010C6E900101B
:1006C00040EACA707060FFF78BFEC0F800901421FA
:1006D00008460FB0BDE8F04F03F08EBA002108467F
:1006E0004FF00000B8F10001099002DAC7F10002F2
:1006F00000E03A4601DAC8F1000106A8FFF79EFEC5
:1007000006AB93E8070003AB83E8070044F23E0022
:100710005BEA04010090584604D144F21E012C46C5
:100720005D460091210C0904014306D1009924047F
:1007300044EA15442D041039009104F07F4101432F
:1007400006D10099240244EA15642D02083900916B
:1007500004F07041014306D10099240144EA157464
:100760002D01091F009104F04041014306D1009979
:10077000A40044EA9574AD00891E009104F0004184
:10078000084304D100986D196441401E00904FF059
:1007900001033A466846B8F1000FCDE9014503A9C7
:1007A00002DD00F0B0FE01E000F083FEBAF1000FC0
:1007B00004460D4601D084F00044002108464FF065
:1007C0000000099940F2FF77484010F00C0F07D164
:1007D00024F00040284303D0C4F30A50B84212D199
:1007E000FFF7FEFDC0F80090C4F30A50B8420AD1EA
:1007F000A8487844D0E90010C6E9001004F0004190
:100800000843706042E7C6E900543FE72DE9FF4F17
:100810001F464FF0000A4FF0FF38454691B0D7E928
:100820000146CDF83CA0FFF7D7FDC0680168405CE9
:100830001090B96912986D1C8847396A81468847BB
:100840000028F6D1B9F1FF3F0AD0002E24F4D0647D
:1008500011DDB9F12B0F08D0B9F12D0F0BD102E04A
:10086000404615B013E744F48064B96912986D1CD2
:100870008847761E8146600504A901D52D2000E039
:100880002B20002E01F1010B0DF130088DF8100026
:100890003FDDB9F1690F08D0B9F1490F05D0B9F1C1
:1008A0006E0F02D0B9F14E0F1CD13B4601A8009546
:1008B00080E85002DDE912126FF0020003F029FA1D
:1008C000C11CCED10EE0B96912986D1C88478146D3
:1008D0001398761E44F4007405600F98401C002E97
:1008E0000F9016DDB9F1300FEDD0B9F1780F02D0CD
:1008F000B9F1580F0DD10F9801280AD13B46CDE927
:100900000054DDE91212001F029603F000FAC11C28
:10091000A7D1109989453ED144F0800406E013998F
:10092000681CAAF1010A44F400740860B9696D1CDE
:100930001298761E884730288146F0D02BE0109917
:10094000894505D1200603D4761E44F0800418E0C2
:10095000484602F0C4FD08B3761E0DF123018B4515
:1009600044F4007408D2A9F130000BF8010B200602
:1009700007D5AAF1010003E0200602D40AF1010024
:100980008246A00502D51399681C0860B9691298BF
:100990006D1C88478146002ED1DC53E0002E51DDCE
:1009A000B9F1650F02D0B9F1450F4BD1A00549D57A
:1009B000B9696D1C1298761E24F440748847002E85
:1009C00081460CDD2B2804D0B9F12D0F07D144F45A
:1009D0008074B96912986D1C8847761E8146E005BF
:1009E00001D52D2100E02B2108F8011BCDF8008056
:1009F00021E0761E0DF13901884544F400740CD2D3
:100A0000A9F1300010F0FF0088F8000002D1009931
:100A1000884509D908F1010806E0E00501D51E481E
:100A200001E042F20F708246B96912986D1C884746
:100A3000814613980560002E04DD484602F04FFD04
:100A40000028D6D1F96912988847FF2053468BF8C1
:100A5000000088F8000000200A900B9004AA0CA95E
:100A60000AA8FFF7ADFDA00502D46FF00100F8E67B
:100A700014F0240F12D0E0071CD13868DDE90A1207
:100A8000031D3B600068C0E9001213E08C370000D2
:100A90007E37000042360000F1D8FFFF0AA9684601
:100AA00002F0ACFCE00705D13868009A011D3960FE
:100AB000006802602846D4E610B50446AFF3008013
:100AC0002046BDE81040FFF766BB00004FF0013C38
:100AD00050F8042B51F8043B9A4221D1A2EB0C03AD
:100AE000934313EACC1317D150F8042B51F8043B6D
:100AF0009A4215D1A2EB0C03934313EACC130BD10A
:100B000050F8042B51F8043B9A4209D1A2EB0C0394
:100B1000934313EACC13DBD04FF00000704700BFC3
:100B2000D01A01BAB1FA81F101F0180122FA01F0EC
:100B3000CB40C1F12001DBB2C0B2C01A2CFA01F3E4
:100B4000D11A914311EAC311E6D170472DE9FF4F45
:100B50001F464FF03C0987B04FF00042DDE914100A
:100B600001F10108DDF858A002EA4050039000208E
:100B700005908346054604460490B969461E0898C8
:100B80008847AAF1010A0290BAF1000F3BDD0298F2
:100B90002E2815D0102100F01CFA00282EDB4FF073
:100BA000010B0599014317D0B9F1000F0BDB4A4641
:100BB000C11700F0FBF905430C43A9F1040905E056
:100BC000012004900BE008B145F0010501200590DB
:100BD000049820B9361D02E0049800B1361FB969A7
:100BE000089808F101088847BBF1000FAAF1010A33
:100BF0000290C9D00999C1F80080C5E70298702811
:100C000008D0502806D0F96908988847BBF1000F32
:100C100014D04FE0002002900120BBF1000F04909F
:100C200009D0B969089808F101088847AAF10109B3
:100C3000B9F1000F07DCF969089888476FF00100E7
:100C40000BB0BDE8F08F2B2804D02D280CD14FF02D
:100C5000FF300490B969089808F101088847A9F1A4
:100C60000109B9F1000FE6DD411CE4D00A2100F0D2
:100C7000B0F90028DFDB029908F1010801EB8101DE
:100C800000EB41000290B969089888470A2100F0FA
:100C9000A0F9099AA9F10109B9F1000FC2F8008081
:100CA00001DD0028E7DAF969089888470499029875
:100CB00000FB016655EA040004D004F0404109003D
:100CC00002D006E0039898E0A40044EA9574AD00D1
:100CD000B61E04F00041080002D16D196441761E71
:100CE000159810F0240F03D04FF00B095C4803E077
:100CF0004FF028096FF07D008246564507DAAAEBCF
:100D000006018944B9F1410F01DD4FF0410901208D
:100D10000021A9F1010200F049F9024628400B46E2
:100D20002140084301D0012100E00021501E029122
:100D300043F1FF3128402140084301D0012000E069
:100D400000200299834651EA0B014FD0002108464A
:100D50004FF00000039900F4400039B100EB80002F
:100D60004FF4400100EBD07001EA600080150128CB
:100D700002DD4FF0FF3000E013D0401C36D0029867
:100D800060B3BBF1000F0CD14A460120002100F0F6
:100D90000DF928402140084301D0012000E0002047
:100DA000E0B101204A46002100F000F90346401955
:100DB0000A4661412D1A8C4111D3B9F1400F09DD6A
:100DC000159810F0240F02D0AAF1340603E0AAF11E
:100DD000170600E0761C00254FF0004406E05B1E7D
:100DE00042F1FF3220EA030521EA0204CAF10100C0
:100DF000B04206DA1B490398084301900020009096
:100E00000EE0039AC4F3D321E80A0A43164940EAE4
:100E100044500A433146CDE90002684602F054FBD3
:100E2000159810F0240F0BD01598C00715D138680D
:100E3000DDE90012031D3B600068C0E900120CE010
:100E400002A8694602F0DAFA1598C00705D1386899
:100E5000029A011D3960006802604046F0E6000019
:100E600002FCFFFF0000F07F0000F03F2DE9FF4F84
:100E700092461D4685B04FF00041DDE9124BDDE999
:100E800014727F1E01EA4B50414940F0FF4940EA8D
:100E90000108002122F020004928049102D04E28A8
:100EA00028D04CE03BA0012607C88DE80700A969BF
:100EB0000698641C88477F1E014606D41DF806006C
:100EC00018B121F0200181420BD0E96906988847CA
:100ED000032E34D0082E32D06FF0010009B0BDE8E7
:100EE000F08F761C032E01D0082EE0D1601CCAF8CA
:100EF0000000DCE7A9690698641C88477F1E2AD495
:100F000020F02000412826D1A9690698641C884752
:100F10007F1E20D420F020004E281CD1A9690698FD
:100F2000641C88477F1E48F4002849F48009CAF8E9
:100F3000004001D4282806D0E969069888475FEA6E
:100F4000CB7012D022E0A9690698641C88477F1EE6
:100F500001D4002803DAE96906988847BCE7292804
:100F6000F1D1641CCAF80040E9E71BF0240F07D058
:100F700028680499031D2B600068C0E9001805E08B
:100F80002868021D2A600068C0F800902046A5E786
:100F90000000F07F494E46494E4954590000000078
:100FA00001491820ABBEFEE726000200B2F1200383
:100FB0000AD5C2F1200301FA02F120FA03F300FA84
:100FC00002F041EA0301704700FA03F14FF000001C
:100FD00070473A2800D2303820F02002412A01D34D
:100FE000A2F13700884201D34FF0FF3070477047BD
:100FF00020F07F4C80EA030023F07F47ACEB07032F
:1010000003F57C5300F0004003F1FF032DE9804914
:101010004FEA154B09B44FEA144325EA0B4E24EA74
:1010200003480FF2042606EB132749083E785FEACF
:10103000320203FB0667C7F5000707FB06F64FEA17
:1010400054374FEAD64606F1020607FB066CCCF190
:10105000005C4FEA1C472CEA074C07FB06F40CFB2C
:1010600006F504EB15464FEA961634BF00204FF004
:1010700000404FEAD13706FB07FC4FEA1C4C0CFB43
:101080000BF7D21B03FB0CF761EB07010CFB0EF710
:10109000B0EB074072EB17420CFB08F734BFA2EB32
:1010A0000742B2EB074261EB17414FEA0C444FEAAB
:1010B000910706FB07FC4FEA1C4C0CFB0BF7B0EB4F
:1010C000C74072EB573203FB0CF734BFA2EBC742A9
:1010D000B2EBC74261EB57310CFB0EF7B0EBC70028
:1010E00072EB57720CFB08F734BFA2EBC702B2EBEE
:1010F000C70261EB5771039F4FEA816141EA921188
:1011000004EBCC044FEAD1374FEA826206FB07FCBE
:1011100042EA90124FEA80604FEA1C4C0CFB0BF73E
:10112000D21B03FB0CF761EB07010CFB0EF7B0EBD6
:10113000074072EB17420CFB08F734BFA2EB0742E3
:10114000B2EB074261EB17414FEA8C554FEA91072A
:1011500004EB9C2406FB07FC4FEA1C4C0CFB0BF732
:10116000B0EBC74072EB573203FB0CF734BFA2EB76
:10117000C742B2EBC74261EB57310CFB0EF7B0EB45
:10118000C70072EB57720CFB08F734BFA2EBC70223
:10119000B2EBC70261EB577115EB4C254FEA816149
:1011A00041EA92114FEA82624FEAD13742EA901245
:1011B00006FB07FC44F100044FEA80604FEA1C4C38
:1011C0000CFB0BF7D21B03FB0CF761EB07010CFBCD
:1011D0000EF7B0EB074072EB17420CFB08F734BF79
:1011E000A2EB0742B2EB074261EB174115EB1C156E
:1011F0004FEA813141EA92414FEA823242EA90421B
:101200004FEA80304FEA0C7644F1000448EA034389
:101210004EEA0B484FF0000EB2EB080C71EB0307DF
:1012200024BF624639464EEB0E0E4FF0000B0018FD
:10123000524149414BEB0B0BB2EB080C71EB03072E
:101240007BF1000B24BF624639464EEB0E0E4FF089
:10125000000B0018524149414BEB0B0BB2EB080C51
:1012600071EB03077BF1000B24BF624639464EEB5E
:101270000E0E51EA020718BF46F0010616EB0E7675
:1012800055F1000254F1000103D5BDE88901BDE824
:101290000088BDE88901BDE80048B619524141EB1C
:1012A0000101A3F10103704780807F7E7D7C7B7A02
:1012B0007978777676757473727171706F6E6E6D02
:1012C0006C6C6B6A6A6968686766666564646363A8
:1012D00062616160605F5F5E5E5D5D5C5C5B5B5A2E
:1012E0005A5959585857575656555555545453539B
:1012F00052525251515050504F4F4F4E4E4D4D4DF6
:101300004C4C4C4B4B4B4A4A4A4949494848484740
:10131000474747464646454545444444444343437E
:10132000434242424241414146EA0646A3F57053D8
:101330004FEA164646EA42564FEAD22242EA415264
:1013400010B54FEAD121A3F1010300F02FF820F0EE
:10135000004000F1020C00F0004701EB0050114684
:10136000BCF5006F40EA070000D210BDBAF1000FD3
:101370000AD01CB503B44FF004004FF004014FF045
:1013800000000FBCBDE810404FF00001BBF1010FA1
:10139000B9BF04484FF0FF310348002140EA07007D
:1013A00010BD00BFFFFFEF7F0000F07F002B9C46C9
:1013B00030D477002BD01CB54FEA370703B44FF079
:1013C00010004FF01001BAF1000F06D0BCF1000F71
:1013D000DCBF40F0080040F008014FF000000FBCF7
:1013E000BDE810400BF1010BBBF1010F08BF5FEA34
:1013F000170722BF12F1010211F101014FF0004164
:1014000043F1000300F0004043EA00007047F9D3C5
:101410005708D0E746EA064613F1400F4FEA164652
:101420001FDD13F1200FDFBF16430A4600212033D2
:101430005B42BED0C3F1200746EA064602FA07F730
:101440004FEA164646EA0706C3F1200722FA03F2DE
:1014500001FA07F721FA03F14FF0000342EA07020D
:10146000A7E746EA020646EA06464FEA164646EA75
:101470000106BCBF46EA0646360C4FF000034FF0AB
:1014800000024FF0000194E72DE9804C9A46934604
:1014900070B491E8380007C831EA400C48BF34EA1C
:1014A000430C03D5FFF7A4FDFFF780FFF0BCBDE8B8
:1014B000008C2DE9804C9A46934670B491E8380030
:1014C00007C831EA400C48BF34EA430C03D5FFF7A4
:1014D0008FFDFFF729FFF0BCBDE8008C2DE9804CA3
:1014E0009A46934670B491E8380007C810F0804FD0
:1014F00008BF13F0804F03D100F01AF8FFF756FF32
:10150000F0BCBDE8008C2DE9804C9A46934670B43F
:1015100091E8380007C810F0804F08BF13F0804FE3
:1015200003D100F005F8FFF7FFFEF0BCBDE8008C2A
:1015300020F07F4780EA030023F07F4C07EB0C0389
:10154000A3F57C5300F00040A3F1FE0392F0000FDE
:1015500000F0B38095F0000F00F077802DE901498D
:101560004FEA11404FEA144621EA004800FB06FC0E
:1015700024EA064708FB06F607FB08F800FB07F716
:1015800018EB06484CEB164C4FEA124B18EB074889
:101590004FEA15464CEB174022EA0B4E0BFB06FCBC
:1015A00025EA06470EFB06F607FB0EFE0BFB07F7C8
:1015B0001EEB064E4CEB164C4FF000061EEB074E92
:1015C0004CEB174B18EB0B0840F1000018EB0E0B1F
:1015D00058EB000840F100008F1A4FF000013CBFAB
:1015E000C943661B14BFB5EB040C00213CBFC943C3
:1015F000F61B4FEA17444EEA8E0E27EA04454FEADF
:101600001C4704FB07622CEA074C05FB07F70CFBA1
:1016100005F604FB0CFC16EB074642EB174216EBF3
:101620000C4642EB1C421BEB060658EB0202414102
:1016300046EA9E0601D5BDE80189B619524141EB43
:101640000101A3F10103BDE801894FEA14454FEA06
:10165000114724EA054621EA074C05FB07F406FB7F
:1016600007F70CFB06F105FB0CFC11EB074144EB03
:1016700017444FEA124711EB0C4144EB1C4422EA99
:10168000074C05FB07F206FB07F70CFB06F605FB0C
:101690000CFC16EB074642EB174216EB0C4642EBEE
:1016A0001C456A1854F1000148BF7047B6195241F1
:1016B00041EB0101A3F10103704795F0000F37D012
:1016C0004FEA11424FEA144721EA024624EA074C46
:1016D00002FB07F106FB07F70CFB06F402FB0CFC10
:1016E00014EB074441EB17414FEA154714EB0C4448
:1016F00041EB1C4125EA074C02FB07F506FB07F707
:101700000CFB06F602FB0CFC16EB074645EB1745F7
:1017100016EB0C4645EB1C42121951F1000148BF73
:101720007047B619524141EB0101A3F10103704723
:101730004FEA14454FEA114724EA054621EA074CCF
:1017400005FB07F106FB07F70CFB06F24FF000065E
:1017500005FB0CFC12EB074241EB174112EB0C426C
:1017600051EB1C4148BF7047921841EB0101A3F1B6
:101770000103704770B5044600688168C943C90712
:1017800017D1816821F00101816000F031FD05462B
:101790000AE000BF00F02CFD401B022804D920689D
:1017A0008068C043C00706D020688068C043C00777
:1017B000F0D0002070BDA06A40F01000A062E06A86
:1017C00040F00100E062012070BD0000F8B5002685
:1017D0000446009600688168C943C9072DD0816816
:1017E00041F001018160164816490068B0FBF1F034
:1017F00000E0401E00900028FBD100F0F9FC0546F7
:1018000016E000BF00F0F4FC401B022810D920684D
:101810008068C043C0070BD0A06A40F01000A062EF
:10182000E06A40F00100E06284F824600120F8BD25
:1018300020688068C043C007E4D10020F8BD0000E4
:101840005800002040420F0010B501F09FFB4148B6
:1018500000F0F6FA04213F4800F054FA3D4CC03441
:1018600028B93C4800F080F902F068F9206001F0E6
:101870009FFB384800F0E4FA0421364800F042FAB1
:1018800028B9344800F070F902F058F9606001F0AE
:10189000A1FB304800F0D4FA04212E4800F032FABF
:1018A00028B92C4800F060F902F048F9A06001F076
:1018B000A3FB284800F0C4FA0421264800F022FACD
:1018C00028B9244800F050F902F038F9E06001F03E
:1018D000A5FB204800F0B4FA04211E4800F012FADB
:1018E00028B91C4800F040F902F028F9206101F005
:1018F000A7FB184800F0A4FA0421164800F002FAE9
:1019000028B9144800F030F902F018F9606101F0CC
:10191000A9FB104800F094FA04210E4800F0F2F9F7
:1019200028B90C4800F020F902F008F9A06101F094
:10193000ABFB084800F084FA0421064800F0E2F905
:10194000002805D1034800F00FF902F0F7F8E06134
:1019500010BD0000600000202DE9F041384C2068E7
:101960006FF00B06314602F0AAF902F0B5F8DFF885
:10197000D4804FF066373A46434601F079FF01F0D4
:10198000B9FE314D28616068314602F098F902F0E5
:10199000A3F83A46434601F06BFF01F0ABFE6861E5
:1019A000A068314602F08BF902F096F83A464346B9
:1019B00001F05EFF01F09EFEA861E068314602F092
:1019C0007EF902F089F83A46434601F051FF01F0F2
:1019D00091FEE8612069314602F071F902F07CF86D
:1019E0003A46434601F044FF01F084FE28626069F4
:1019F000314602F064F902F06FF83A46434601F0CE
:101A000037FF01F077FE6862A069314602F057F9AE
:101A100002F062F83A46434601F02AFF01F06AFEFE
:101A2000A862E069314602F04AF902F055F83A46F8
:101A3000434601F01DFF01F05DFEE862BDE8F08164
:101A40002001002066660A4000000020044840692A
:101A50000449884201DD412070471420704700008E
:101A60000000002000002040FEE77047F8B5002489
:101A7000009490F824202546012A12D0012280F8F3
:101A800024204A681F23072A0DD20668776B521E4E
:101A900002EB820293409F430B6893401F4377639E
:101AA00019E00220F8BD06680D2A0AD2376BD21F52
:101AB00002EB820293409F430B6893401F433763BE
:101AC00009E0F76A0D3A02EB820293409F430B68EC
:101AD00093401F43F7620A68072306680A2A0AD35D
:101AE000F7680A3A02EB420293409F438B689340A7
:101AF0001F43F76008E0376902EB420293409F43BF
:101B00008B6893401F4337610A68102A01D0112A5D
:101B100020D1124B02689A4217D193681B0219D444
:101B2000936843F4000393600968102912D10C49AB
:101B30000C4A0968B1FBF2F101EB8101490000E0B8
:101B4000491E00910029FBD104E0816A41F0200187
:101B50008162012480F824502046F8BD0024014011
:101B60005800002040420F000068C06C7047000021
:101B70002DE9F0414FF0000704003D467ED0A06AF9
:101B8000002628B9E66284F82460204600F07EF83A
:101B90002046FFF7EFFDA16AC90600D420B1A06A74
:101BA00040F01000A06269E0A16A21F4885141F080
:101BB0000201A1626268E169237B0A4347EA4301AB
:101BC0000A43A1684FF48077B94209D0012907D0B0
:101BD0005FF0000194F814C0BCF1010F02D00AE0DC
:101BE0003946F7E7F3B1A36A43F02003A362E36A3F
:101BF00043F00103E3622368D3F804C02CF4694C7A
:101C00004CEA010CC3F804C021688B68DFF870C08F
:101C100003EA0C0313438B60A168B9420BD001297E
:101C200009D00CE0DFF85CC0A3690CEB43330B4335
:101C300043F40061DFE7218A0D05A5F580152168D1
:101C4000CB6A23F470032B43CB62216889680E4B67
:101C50001940914208D1E662A16A21F0020141F0E7
:101C60000101A162BDE8F081A06A20F0020040F00D
:101C70001000A062E06A40F00100E0620120F1E79C
:101C8000FDF7E1FF00E0FFFFFE0E1FFF10B586B07D
:101C90000021009101910291039100681549884249
:101CA00026D11548816941F400718161816901F48F
:101CB00000710491816941F004018161816901F041
:101CC00004010491816941F0080181618069032464
:101CD00000F008000490F320CDE9000469460748AD
:101CE00000F090F9009469460548019400F08AF9E3
:101CF00006B010BD00240140001002400008014061
:101D0000000C01402DE9F84300270D4604460097DA
:101D100000F06EFA804620688168C90508D5A06A7F
:101D200040F02000A06284F824700120BDE8F88310
:101D30004168C90503D4C06A10F4700F2AD002208C
:101D400000F0F4FA3B490968B1FBF0F6206803693A
:101D500039490B424FEA61014FEAA1121FD1C36812
:101D60004FEA611C13EA0C0F19D103690B4225D10C
:101D7000C068104222D1142023E0681C0AD02DB183
:101D800000F036FAA0EB0800A84203D920680068EA
:101D9000800725D5206800688007EED52DE003690F
:101DA0000B4202D1C168114206D0026923490A429E
:101DB00006D1C068084203D1542002E0292000E087
:101DC000FC204643009816E0681C11D02DB100F0AD
:101DD0000FFAA0EB0800A8420AD90098B04207D237
:101DE000A06A40F00400A06284F8247003209DE7FC
:101DF0000098401C0090B042E6D321686FF01200BA
:101E00000860A06A40F40070A06220688068C0F397
:101E1000424007280CD1207B50B9A06A20F4807082
:101E2000A062A06AC00403D4A06A40F00100A062CE
:101E300000207BE758000020244992244992240086
:101E400070B5044690F8240001280DD0012084F8D4
:101E500024002046FFF7BAFC02004FF0000005D036
:101E600084F82400104670BD022070BDA16A40F2C3
:101E70000123994341F48071A1621F4D23681F49DA
:101E8000AB4218D10E6816F4702F14D0A66A46F42F
:101E90008016A6620E68760505D5A66A26F4005659
:101EA00046F48056A662A66AF6040AD5E66A26F0CB
:101EB0000606E66206E0A66A26F48016A6625E685A
:101EC000E9E7E06284F824006FF0020018602068FF
:101ED0008368C3F34243072B05D1A84208D10968A0
:101EE00011F4702F04D0816841F480118160B9E74A
:101EF000816841F4A001F9E7002801400424014071
:101F000010B590F821100022022905D00421816328
:101F100080F82020012010BD01680B6823F00E031B
:101F20000B6001680B6823F001030B6090F84030F0
:101F3000C46B012101FA03F3636080F8211080F87B
:101F40002020104610BD000010B590F8211000248C
:101F5000022903D00421816301243DE001680A685D
:101F600022F00E020A6001680A6822F001020A608B
:101F70001A4A0168914201D1012121E0174A143225
:101F8000914201D110211BE0144A2832914201D123
:101F9000891515E0114A3C32914201D189140FE0B4
:101FA0000E4A5032914202D14FF4803108E00B4A80
:101FB0006432914202D14FF4801101E04FF0807100
:101FC000064A083A5160012180F82110002180F86A
:101FD0002010416B01B18847204610BD0800024027
:101FE00070B5044600F004F90546601C02D00448B0
:101FF0000078044400F0FCF8401BA042FAD370BD06
:102000004C0000202DE9F84FDFF8B8910024A9F129
:10201000040B23460F2709F1040AABF1040EC9E0B3
:102020000125A5402A40AA427DD1674ED1F804C0BF
:10203000ACEB0608B44532D014DCBCF1030F3AD047
:1020400009DCBCF1000F2AD0BCF1010F1CD0BCF19F
:10205000020F31D11DE0BCF1110F17D0BCF1120FEE
:102060002AD119E0B8F5881F19D006DCB8F5803FF1
:1020700015D0B8F5801F1FD111E0B8F5001F0ED0A4
:10208000B8F5041F18D10AE0CB6815E0CB681B1D1A
:1020900012E0CB6808330FE0CB680C330CE08B68A0
:1020A0002BB1012B4FF0080303D0456104E004235A
:1020B00002E0056100E00023FF2A01D8064601E0A6
:1020C00000F104064FEA840501D9A5F12005D6F8F0
:1020D000008007FA05FC28EA0C0803FA05F548EA2F
:1020E0000508C6F800804D68ED0062D5374DAE6931
:1020F00046F00106AE61AD6924F0030605F0010566
:102100000095334D06EB050CDCF80850A607360F9A
:1021100007FA06F825EA0805DFF8B880404503D13C
:102120004FF0000817E044E0DFF8AC80404502D1F2
:102130004FF001080FE0DFF8A480404502D14FF0D6
:10214000020808E0DFF89880404502D14FF003080C
:1021500001E04FF0040808FA06F848EA0508CCF850
:1021600008804D68D9F80060ED024D4601D5164350
:1021700000E096432E604D68DAF80060AD025546E7
:1021800001D5164300E096432E604D68DBF80060F1
:10219000AD035D4601D5164300E096432E604D68C1
:1021A000DEF80060ED03754601D5164300E0964366
:1021B0002E60641C0D682A46E5407FF431AFBDE80F
:1021C000F88F0000080401400000111000100240C8
:1021D0000000014000080140000C014000100140D7
:1021E000001401400AB1016170470904FBE70000D7
:1021F00001488068704700004C0000200248816858
:1022000002781144816070474C000020074810B5E7
:10221000016841F010010160032000F075F80F2003
:1022200000F006F800F024F8002010BD0020024065
:1022300070B50D4D04464FF47A712878B1FBF0F07B
:102240000A490968B1FBF0F000F0A4FB48B9102C72
:1022500007D200222146501E00F036F800206C60A4
:1022600070BD012070BD00004C000020580000200F
:102270000C4808B5816941F001018161816901F073
:1022800001010091C16941F08051C161C06900F054
:10229000805000900448416821F0E06141F00071F5
:1022A000416008BD0010024000000140002809DB29
:1022B00000F01F02012191404009800000F1E02060
:1022C000C0F8001170470000F0B40E4B1B680C46BC
:1022D000C3F30223C3F10705042D00D90425191DFA
:1022E000072901D2002300E0DB1E012606FA05F1D2
:1022F000491E214099409E40761E16403143F0BC55
:1023000001F05DB80CED00E0064900F00702086836
:102310004FF6FF03184040EA0220034A10430860CA
:10232000704700000CED00E00000FA0510B5014612
:102330000020234C012922D0022939D010291DD197
:1023400061682268D20119D51E48C1F38342C903CE
:10235000805C0AD561681B4AC1F34041921E515C02
:10236000194AB2FBF1F1484301E01849484361685A
:10237000490203D440000321B0FBF1F010BD226AF2
:10238000C2F30121012903D1920701D5C80310BD71
:10239000022905D1626A920702D549F6404010BD74
:1023A0000329FCD121688903F9D54FF2244010BDDF
:1023B00000F02AF96168C1F38131491C4900DBE76B
:1023C000001002405A3D000800127A0000093D004A
:1023D0002DE9F84305460078354CC00754D0E06934
:1023E0000026C00008D4E06940F08050E061E06958
:1023F000012600F0805000902E480168C90512D4D3
:102400000168804641F480710160FFF7F1FE0746E4
:1024100005E000BFFFF7ECFEC01B642823D8D8F806
:102420000000C005F6D5206A10F4407021D0A988BC
:1024300001F4407181421CD0206A1F49012220F41E
:1024400040700A6000220A602062C00711D0FFF7C6
:10245000CFFE074641F2883808E000BFFFF7C8FE0C
:10246000C11B414502D90320BDE8F883206A8007DB
:10247000F4D5206A696820F44070084320621EB1D8
:10248000E06920F08050E0612878800705D5606819
:10249000A96820F44040084360602878C00605D54C
:1024A0006068E96820F48000084360600020DBE792
:1024B0000010024000700040400442422DE9F04705
:1024C0000F46050061D0434E306800F00700B84267
:1024D00009D2306820F0070038433060306800F0DF
:1024E0000700B84251D128683B4C810712D54007FC
:1024F00003D5606840F4E06060602878000703D589
:10250000606840F4605060606068A96820F0F00086
:10251000084360602878C00728D06868012810D078
:102520002168022810D0890700292EDA616821F07D
:10253000030101436160FFF75BFE804641F2883989
:102540000DE021688903EFE78901EDE7FFF750FE11
:10255000A0EB0801494502D90320BDE8F087606877
:10256000696800F00C00B0EB810FEFD1306800F02B
:102570000700B8420BD9306820F0070038433060BC
:10258000306800F00700B84201D00120E5E7287864
:10259000400705D56068E96820F4E06008436060A2
:1025A0002878000706D56068296920F4605040EA61
:1025B000C100606000F038F86168084AC1F3031197
:1025C000515CC8400649086006480068FFF730FEC5
:1025D0000020C2E700200240001002406A3D0008CF
:1025E0005800002050000020044805490068496850
:1025F000044AC1F30221515CC840704758000020D2
:10260000001002407A3D0008044805490068496806
:10261000044AC1F3C221515CC840704758000020F1
:10262000001002407A3D00080E4A51680E4801F041
:102630000C03042B11D0082B0FD10C48C1F383439A
:10264000C903C05C0AD55168084AC1F34041921ED3
:10265000515C054A5043B0FBF1F0704704494843D0
:10266000704700000010024000127A00483D000848
:1026700000093D002DE9F84F040070D02078C04DCE
:10268000C00749D06868C0F38100012807D0686896
:10269000C0F38100022809D16868C00306D5286804
:1026A000800339D560680028E7D035E06068B0F570
:1026B000803F0BD010B1B0F5A02F11D0286820F4C6
:1026C00080302860286820F4802002E0286840F4E8
:1026D00080302860606890B1FFF78AFD06460AE006
:1026E000286840F480202860F0E700BFFFF780FDF5
:1026F000801B642873D828688003F7D50CE0FFF7A7
:1027000077FD064605E000BFFFF772FD801B6428D9
:10271000F0D828688003F7D420789A4E80074FF0CD
:1027200001094FF0000839D5686810F00C0F07D088
:102730006868C0F38100022809D16868C00306D424
:102740002868800714D52069012808D110E0206985
:10275000B0B1C6F80090FFF74BFD074605E00AE16F
:10276000FFF746FDC01B0228C4D828688007F7D5AC
:102770002868616920F0F80040EAC10028600DE097
:10278000C6F80080FFF734FD074604E0FFF730FD90
:10279000C01B022823D828688007F7D420780007B8
:1027A0002CD57948A169D9B1C0F80090FFF720FD78
:1027B000074604E0FFF71CFDC01B02280FD8686A1B
:1027C0008007F7D571484FF4FA510068B0FBF1F07B
:1027D000009000BF0098411E0091FAD20EE080E008
:1027E000C0F80080FFF704FD074604E0FFF700FD96
:1027F000C01B022875D8686A8007F7D42078400784
:1028000060D5E8690027C00008D4E86940F080502E
:10281000E861E869012700F0805000905C48016899
:10282000C90513D40168834641F480710160FFF744
:10283000DFFC824606E000BFFFF7DAFCA0EB0A00EF
:1028400064284ED8DBF80000C005F5D5E068012803
:102850000AD008B1052813D0286A20F001002862A8
:10286000286A20F0040002E0286A40F00100286293
:10287000E06841F2883B98B1FFF7BAFC82460BE072
:10288000286A40F004002862EEE700BFFFF7B0FCC2
:10289000A0EB0A0159455AD8286A8007F6D50CE002
:1028A000FFF7A6FC824605E0FFF7A2FCA0EB0A01B9
:1028B00059454CD8286A8007F6D41FB1E86920F042
:1028C0008050E861E06988B36968C1F38101022939
:1028D00044D00228C6F8608004D0FFF789FC044683
:1028E00038E034E0FFF784FC074604E0FFF780FCA3
:1028F000C01B02282BD828688001F7D4206AB0F5C5
:10290000803F05D16868A16820F400300843686002
:10291000D4E908010843696821F474110843686028
:10292000C6F86090FFF764FC044606E025E000BFAF
:10293000FFF75EFC001B022809D828688001F7D544
:102940001BE000BFFFF754FC001B022802D9032044
:10295000BDE8F88F28688001F4D40EE00128F7D094
:102960006868226A00F48031914204D1616A00F4FF
:102970007010884201D00120EAE70020E8E700005B
:1029800000100240000042428004424258000020F1
:102990000070004010B5401EB0F1807F01D30120CF
:1029A00010BD4FF0E02460610F21601700F007FDBB
:1029B0000020A06107202061002010BD70477047F3
:1029C000F8B5016804460868CA684B6910F00F0F33
:1029D0004FF0000559D003F0010602F49077374319
:1029E00065D0C10705D0D10503D5616C41F0010167
:1029F0006164410705D5D90703D0616C41F002013C
:102A00006164810705D5D90703D0616C41F00401E9
:102A10006164010707D502F02001314303D0616CE6
:102A200041F008016164616C00293AD0800604D548
:102A3000900602D5204600F0BCFB20684069616C1E
:102A4000C0F38010090700D460B3204600F08AFB71
:102A500020684069400621D52068143050E8001FE6
:102A600021F0400140E80012002AF5D1E06BA8B146
:102A70006D494163E06BFFF767FA002811D0E06B06
:102A8000416B01B0BDE8F040084783060FD59306BF
:102A90000DD52046BDE8F84000F08BBB2046FFF77F
:102AA0008EFFF8BD2046FFF78AFF6564F8BD266BF0
:102AB0002023012E7CD1C6067AD5D60678D50868A3
:102AC0004868009048694FF00206400640D5E16B27
:102AD000086840680004000CE8D0A28D8242E5D965
:102AE000E085886920282DD020680C3050E8001F30
:102AF00021F4807140E80012002AF5D120681430DA
:102B000050E8001F21F0010140E80012002AF5D131
:102B10002068143050E8001F21F0400140E8001206
:102B2000002AF5D184F84230256320680C3050E843
:102B3000001F21F0100140E80012002AF5D1E06BDF
:102B4000FFF7DEF96663A08DE18D401A81B22AE0BD
:102B5000A08DE18D401A81B2E08D0028A6D0002919
:102B6000A4D022680C3252E8000F20F4907042E8A2
:102B70000007002FF5D12068143050E8002F22F014
:102B8000010240E80027002FF5D184F84230256388
:102B900020680C3050E8002F22F0100240E800239B
:102BA000002BF5D166632046FFF708FFF8BDFFE76D
:102BB00005062BD5150629D594F841002128F5D115
:102BC000A068B0F5805F01D12069B0B1206A411CD6
:102BD0002162216800784860E08C401E0004000CEF
:102BE000E084E3D12068C16821F08001C1602068E1
:102BF000C16841F04001C160D8E7206A0088C0F395
:102C000008004860206A801C2062E5E74006CDD5B8
:102C10005006CBD5CA68204622F04002CA6084F82C
:102C2000413000F004F9C1E75531000870B50400E7
:102C300004D094F84100002510B106E0012070BDD9
:102C400084F84050204600F023F8242084F8410006
:102C50002068C16821F40051C160204600F00AFBE1
:102C60002068016921F4904101612068416921F0E7
:102C70002A0141612068C16841F40051C160656466
:102C8000202084F8410084F842006563002070BD74
:102C900030B585B000240094019402940394324D21
:102CA0000368324802210322AB422ED1836943F4E8
:102CB00080438361836903F480430493836943F011
:102CC0000803836180692A4D00F0080004904020C9
:102CD000CDE90001039269462846FFF793F9802069
:102CE000CDE90004694628460294FFF78BF9214894
:102CF000416841F0E06141F0040141600022114669
:102D00002520FFF7E1FA252029E01B4DAB4228D111
:102D1000C36943F40033C361C36903F4003304930C
:102D2000836943F0040383618069144D00F004005B
:102D300004900420CDE90001039269462846FFF77C
:102D400061F90820CDE90004694628460294FFF79E
:102D500059F9002211462620FFF7B6FA2620FFF780
:102D6000A5FA05B030BD0000003801400010024057
:102D7000000C0140000001400044004000080140F8
:102D80002DE9F843044690F84200994616460D4650
:102D9000202802D00220BDE8F883ADB1A6B1002002
:102DA0006064222184F842102063FFF721FAA6858F
:102DB0008046E685A0684FF48057B84201D120696B
:102DC00020B12E46002526E00120E4E7002622E07F
:102DD0004346002220212046CDF8009000F0A6FABC
:102DE00008B10320D7E726B1A068B8421BD038B19C
:102DF00008E020684068C0F3080025F8020B07E0EF
:102E0000206980B12068406800F07F0006F8010B5F
:102E1000E08D401EE085E08D0028D9D1202084F887
:102E200042000020B7E720684068EFE7704770472E
:102E3000FEE700003EB5002410480094019402947F
:102E40000D498460016004730475012505614FF428
:102E500060214460C161FEF78BFE08B172B6FEE7E7
:102E6000CDE90045694605480295FEF7FFFD0028BB
:102E700001D072B6FEE73EBD002401406000002094
:102E800070B586B00024184800940194029403940D
:102E9000816941F020018161816901F02001049183
:102EA000816941F004018161816901F004010491AB
:102EB000816941F00801816180690C4E00F00800D1
:102EC0004FF44E750490002229463046FFF78AF9E8
:102ED00001200095CDE901040220039069463046A7
:102EE000FFF790F806B070BD00100240000C0140E2
:102EF000FEE7FEE77047000070B51D494FF0FF3355
:102F00006422A1F1B400FFF73BFF1A4C207010B10E
:102F10001320206370BD0120206317A11448FDF722
:102F200061F9144E0025443618E0616B0C22491CEF
:102F3000616312A1FDF75CF960B90FA10020FDF7F4
:102F400051F900F0D3FA00F0D5FB46F825006D1CCE
:102F5000022D05DA08A10020FDF744F90028E4D18C
:102F6000642060633068E0637068206470BD0000B6
:102F700044010020000000202000000054656D7016
:102F8000657261747572653A000000000EB500202C
:102F90000090012001900620029069460348FEF748
:102FA00065FD002801D072B6FEE70EBD600000206E
:102FB0000EB5012000900190062002906946044859
:102FC000FEF754FD002801D072B6FEE70EBD0000EA
:102FD000600000200EB50420009001200190062022
:102FE000029069460348FEF741FD002801D072B601
:102FF000FEE70EBD600000200EB505200090012008
:1030000001900620029069460348FEF72FFD002834
:1030100001D072B6FEE70EBD600000200EB506209E
:103020000121CDE90001029069460448FEF71EFD2A
:10303000002801D072B6FEE70EBD0000600000203F
:103040000EB50720009001200190062002906946ED
:103050000348FEF70BFD002801D072B6FEE70EBD57
:10306000600000200EB5082000900120019006208D
:10307000029069460348FEF7F9FC002801D072B6B9
:10308000FEE70EBD600000200EB509200090012073
:1030900001900620029069460348FEF7E7FC0028ED
:1030A00001D072B6FEE70EBD600000207047FFF74A
:1030B000A5B830B593B028216846FDF7E4F814218F
:1030C0000AA8FDF7E0F8002501200F95109511954D
:1030D000010412958DE8230004904FF4E010CDE92F
:1030E0000810022407946846FFF7C4FA08B172B6C4
:1030F000FEE70AA90F2081E831004FF48060CDE996
:103100000D0502210AA8FFF7D9F908B172B6FEE74A
:103110004FF4404011900F940FA8FFF759F9002881
:1031200001D072B6FEE713B030BD704710B5002075
:10313000064B074A014600BF53F82140944200DD88
:103140000120491C89B20329F6D310BD4400002098
:103150000000C84110B5406A0021C185C184FFF755
:103160002EFC10BD01680C3151E8002F22F4907242
:1031700041E80023002BF5D10168143151E8002FFC
:1031800022F0010241E80023002BF5D1016B012957
:1031900009D101680C3151E8002F22F0100241E8FA
:1031A0000023002BF5D1202180F84210002101637B
:1031B000704708B590F84210222901D0022008BDBE
:1031C00082684FF480539A4201D1016921B1816A2A
:1031D0009A421BD04AB10AE00268816A5268C2F37F
:1031E00008020A80816A891C08E0026972B10268DB
:1031F000526802F07F020A70816A491C8162C18DA7
:10320000491E0904090CC18503D01BE002685268FD
:10321000F1E70168CA6822F02002CA600168CA6842
:1032200022F48072CA6001684A6922F001024A6190
:10323000202180F8421000214163026B012A03D053
:10324000FFF7F4FD002008BD016301680C3151E86F
:10325000002F22F0100241E80023002BF5D1016875
:103260000A68D20602D50A6849680091818DFFF785
:10327000A5FBE7E770B5044600680169E26821F440
:103280004051114301612169A06808436169084305
:103290002168CA6841F20C639A430243CA602068FD
:1032A0004169A26921F44071114341611E492068BE
:1032B000884202D1FFF7A8F901E0FFF795F900EB8A
:1032C000C00101EB0012606864218000B2FBF0F3E2
:1032D000B3FBF1F36FF018067343B2FBF0F5B2FBEA
:1032E000F0F605EB8305322303EB0515B5FBF1F58D
:1032F000B6FBF1F605F0F00505EB0615B2FBF0F6AE
:10330000B2FBF0F0B0FBF1F06FF01802504306EBA7
:10331000800003EB0010B0FBF1F0216800F00F001B
:103320002844886070BD0000003801402DE9F0415C
:10333000984617460E460446069D27E0681C25D091
:103340002DB1FEF755FFA0EB0800A8421ED920685A
:103350000C3050E8001F21F4D07140E80012002A20
:10336000F5D12068143050E8001F21F0010140E839
:103370000012002AF5D1202084F8410084F8420090
:10338000002084F840000320BDE8F0812068006838
:1033900036EA000004D00020B842CFD00020F3E786
:1033A0000120F9E70148FFF70BBB00009000002067
:1033B0000148FFF705BB0000D8000020FEE7090721
:1033C000090E002804DB00F1E02080F800147047AB
:1033D00000F00F0000F1E02080F8141D704740F26B
:1033E000013200204FF0E04100F03BBC024A0020D7
:1033F000110700F036BC000001FDFFFF10B50446C8
:10340000D1E9000100F002F8206010BDF8B50446D3
:103410000D466A4600F080F800987E300090002843
:103420001EDC002213462046294600F0A9F917D0D9
:10343000002140F608004FF00000064620462946CD
:1034400000F058F9044640F6080006EA00014FF083
:10345000000034F0004004BF0220FCF743FF29E0E5
:103460000098FF2828DB002108464FF0000000F4F8
:103470004006002213462046294600F0F7FA8CBF8A
:10348000002501250220FCF72DFF4FF0FF4446B137
:10349000002D0CBF4FF400004FF48000B04218BF65
:1034A000084C042108464FF00000002D04BF84F0B2
:1034B0000040F8BD2046F8BD20462946BDE8F8404A
:1034C00000F018B9FFFF7F7F10B504460A46D4E923
:1034D0000003194600F04CF8C4E9000110BD303873
:1034E0000A2801D2012070470020704730B583B010
:1034F0000446FCF7F2FE05460020CDE90000024636
:1035000021466846FCF712FF2846FCF7EBFEDDE992
:10351000000103B030BD000010B514460022226047
:10352000114A21F000439342A8BF10BD53EA0002A4
:1035300008BF10BDB3F5801FA8BF226807DA362286
:1035400000F08FFB6FF0350221F000432260DFF8BE
:103550001CC06FF31E510CEB23531A4441F0FF5172
:1035600041F00051226010BD0000F07F02FCFFFF1F
:103570002DE9F04106460C4640F2FF75174635EA44
:1035800014502BD000221346304600F0F9F825D015
:103590003A463046214600F064FB06460C4635EAC2
:1035A000145010D000221346304600F0E9F815D12F
:1035B0000220FCF797FEFFF719FF0A46214662F347
:1035C0001E01BDE8F0810220FCF78CFEFFF707FF2B
:1035D0000A46214662F31E01BDE8F08130462146CD
:1035E000BDE8F081FEF712FEFFF763FDFFF748FC30
:1035F000FFF720FC27482649002501604FF41651AB
:10360000C0E901150C21C560C0E904518561C5619F
:10361000FFF70CFB204C012641F2883808B172B646
:10362000FEE74FF47A7700BFFEF70EF9FEF794F944
:10363000FFF762FC3846FEF7D3FCA681FEF706FAD8
:103640002081FFF773FD6081A0890128ECD12089DA
:10365000192808D8E08830B9608820B94046FEF7BC
:10366000BFFC6680A58020893C2806D3A08820B9AD
:103670004046FEF7B5FCA680658060890128D3D15D
:10368000E0880028D0D14046FEF7AAFCE680CBE7D0
:1036900000380140900000200000002010B50029F3
:1036A0000AD00878002807D005487844FDF70EFABC
:1036B000002801D0002010BD0248784410BD000051
:1036C0009E0700009607000010B500290AD0087870
:1036D000002807D005487844FDF7F8F9002801D004
:1036E000002010BD0248784410BD00008E07000085
:1036F0008607000021F00042A2F16052B2F5801F5F
:1037000001F0004328BFD2F17F6C0BD95FEA001CA7
:1037100043EAC20242EB507018BF704728BF20F046
:1037200001007047B2F5801FBCBF184670474FEAD2
:10373000410C1CF5001F02D2084600F058BA70B5C3
:1037400000F040F900000089FFF7F6BF4FF000409D
:10375000A0F580007047000002494FF0000000F023
:103760004EBA00BF0000F87F491058BFC1F1404178
:103770005B1058BFC3F140438B42EFF300807047AA
:1037800051EA030C17D41CF5801F58BFBCF5801FED
:1037900000F10680994218BF704708BF90427047F9
:1037A00007D711F5801F58BF13F5801F19D4994210
:1037B0007047894270471CF5801F08D5BCF5801FF3
:1037C000F7D58B4218BF704708BF824270474FF44D
:1037D000001C1CEB410F38BF1CEB430F01D28B4286
:1037E000704770B500F0EEF8922449004FF0005198
:1037F0004FF08053FFF7B8BF51EA030C17D41CF504
:10380000801F58BFBCF5801F00F10680994218BF89
:10381000704708BF9042704707D711F5801F58BF07
:1038200013F5801F19D499427047894270471CF5DF
:10383000801F08D5BCF5801FF7D58B4218BF704795
:1038400008BF824270474FF4001C1CEB410F38BF89
:103850001CEB430F01D28B42704770B500F0B2F8F9
:10386000922449004FF000514FF08053FFF77CBF86
:10387000DFF848C170B51CEA111E1EBF1CEA131503
:103880009EEA0C0F95EA0C0F00F06F8081EA0304AA
:1038900023EA4C134EEAD47E21EA4C1141F4801104
:1038A00043F48013AE44A1FB024CA0FB0365AEF1D0
:1038B0007F7E361955EB0C05A1FB034C4CF1000340
:1038C000A0FB021C16EB0C06654153F100030942F4
:1038D00018BF46F0010613F4007F0BD14FEA033105
:1038E0004FEA0530340341EA155140EA16506FF0B3
:1038F00003020AE04FEAC3214FEAC520F40241EA7D
:10390000555140EA56506FF0020202EB2E4201EB95
:10391000025585EACE710AD05FEA440C18BF24F044
:10392000004450F1000041F1000120EAD47040F25F
:10393000FE7C624500D270BDA84214BF4FF08044A7
:103940004FF04044002E08BF0024BEF1806FA8BF96
:10395000A1F1C041BDE8704080F282804FF00000CC
:1039600001F1C04101F0004170479EEA0C0F0CEAE2
:10397000131518BF95EA0C0F06D04FF0000081EA2E
:10398000030E0EF0004170BD00F01CF88900013EEE
:1039900000F007B800F009B84FEA430C5FEA5C5C3E
:1039A00008D081EA030100F05BB84FEA410C5FEAFE
:1039B0005C5CF6D14FF00000014970470000FF0742
:1039C0000000F87F0EF1020E2EF0030E5EF8046B7D
:1039D000364205D4012A43EB030515F5001F12D822
:1039E000012841EB010C1CF5001F0CD80ED14FEA49
:1039F000D17C15F5001F0CEB4C0C0CF1020C08BF30
:103A00004CEBD37C04E04FF0080C01E04FEAD37C90
:103A10000CEB4C0526FA05F606F00706B6F1040C89
:103A200006D20EEB860CBDE870404CF0010C6047EE
:103A3000DFE80CF0090B02024FF000414FF00000EC
:103A4000A1F5002170BD19461046012851EB010473
:103A500018BFD4F5001484BF002001F0004170BDF0
:103A60000808A0F500114FEA3101704753EA010C34
:103A700017D41CF5801F58BFBCF5801F00F10680CD
:103A80008B4218BF704708BF8242704707D713F5B3
:103A9000801F58BF11F5801F19D48B4270479B427D
:103AA00070471CF5801F08D5BCF5801FF7D59942DB
:103AB00018BF704708BF904270474FF4001C1CEBC2
:103AC000430F38BF1CEB410F01D2994270470FB42E
:103AD0000CBC03BCFFF7C1BE43004FEAD30C4FEA56
:103AE0003C0C43401FBF40070CF1605113F0FE4FE8
:103AF00070471CF0006F03D100200CF000417047AC
:103B00000CF0004343EA507010B540EACC0000F0DE
:103B100028F800BF000000924FEA0001FFF7A0BFA5
:103B20004FF000414FF00000A1F500217047000068
:103B3000014800F064B800BF0000C07FB0FA80F315
:103B400010FA03F2C3F19D030AD0D90501EB12204C
:103B5000530638BF704700F1010008BF20F0010094
:103B600070470EF1020E2EF0030E5EF8044B244255
:103B700004D44FEA4102B2F17F4F11D84FEA40031B
:103B8000B3F17F4F0CD80ED14FEAD07CB2F17F4F0A
:103B90000CEB4C0C0CF1020C08BF4CEBD17C04E09C
:103BA0004FF0080C01E04FEAD17C0CEB4C0324FAF7
:103BB00003F404F00704B4F1040C06D20EEB840CF9
:103BC000BDE810404CF0010C6047DFE80CF007083E
:103BD00002024FF00040A0F5800010BD08464200F0
:103BE00018BFD2F1807288BF00F0004010BDFF21E5
:103BF00041EAD050C00570474FF0000070470CF00C
:103C00000F03092B08BF082000F085800A2B0BD07A
:103C1000082B18BF704708BF1CF0400F0AD04FF0A8
:103C200000004FF0000170471CF0400F18BF4FF02C
:103C3000004070471CF0100F08D020F0704300F0D7
:103C40007F4242EAD3014FEA4370704700F0604080
:103C500021F07F4242EA000201F07F4040EA7270A8
:103C600070474FF0FF0C4CF4E06C1CEA11531CBF82
:103C70009CEA030C9445C2BFDA4201EB0251704743
:103C8000002B0DD0BCF1000F0FD0002A01F0004135
:103C9000A4BF41F0E04141F07F614FF00000704768
:103CA00001F000414FF00000704750EA01334FF03F
:103CB0009B0C18BF4CF0806C7FF44EAD70474FF0FA
:103CC000FF0212EAD0521CBF92F0FF038B42C2BF28
:103CD000D14200EBC1507047002A0AD0002B0BD014
:103CE000002900F00040A4BF40F0FE4040F4000076
:103CF000704700F00040704743024FF00B0C18BFB4
:103D00004CF0806C7FF414AF7047FCF77FBDFCF77C
:103D10001DBFFDF7ABB81CF4801F11D01CF4E02FC1
:103D200003D06FEACC31490070474FF04050EFF3B9
:103D3000008222F0704242EA000282F3008870475B
:103D40004FF000007047010202030405060708094E
:103D50000A0B0C0D0E0F10100102020304050607DA
:103D600008090A0B0C0D0E0F1010000000000000D7
:103D70000000010203040607080900000000010218
:103D80000304000002400000000000A0000000004A
:103D900005400000000000C8000000000C400000CA
:103DA0000000409C00000000194000000020BCBE44
:103DB0000000000034400000BFC91B8E000000045A
:103DC000B5400000504BCFD06607E2CF01000000A5
:103DD0006C4100003E8251AADFEEA73401000000D2
:103DE000D9420000DCB5A0E23A301F97FFFFFFFF89
:103DF000B4450000FD25A0C8E9A3C14FFFFFFFFFA8
:103E0000FF3F00000000008000000000FF3F0000B6
:103E10000000008000000000743F00080000002047
:103E20006000000028010008D43F00086000002066
:103E3000E007000044010008000000000000F07FDF
:103E4000FFFFFFFFFFFFEF7F1C00000043000000AB
:103E5000F8FFFFFF0C0000000E0000000F00000044
:103E60002E0000001001000043000000F8FFFFFFDB
:103E7000004040404040404040404141414141407D
:103E80004040404040404040404040404040404032
:103E900040050202020202020202020202020202C1
:103EA00002202020202020202020200202020202C6
:103EB000020290909090909010101010101010101E
:103EC000101010101010101010101010020202022A
:103ED000020288888888888808080808080808086E
:103EE000080808080808080808080808020202026A
:103EF0004000000000000000000000000000000082
:103F000000000000000000000000000000000000B1
:103F100000000000000000000000000000000000A1
:103F20000000000000000000000000000000000091
:103F30000000000000000000000000000000000081
:103F40000000000000000000000000000000000071
:103F50000000000000000000000000000000000061
:103F60000000000000000000000000000000000051
:103F70000000000000000000000000000000000041
:103F80000000000000000000000000000000000031
:103F90000000000000000000000000000000000021
:103FA0000000000000000000000000000000000011
:103FB0000000000000000000000000000000000001
:103FC0000100000010000000000000000024F400C8
:043FD00000000000ED
:04000005080000ED02
:00000001FF
